:020000040000FA
:020000000528D1
:040002000034003492
:06000A00831603178812A3
:100010000313091483120313831603138801880141
:100020008312831603130710831283120313A6018E
:100030000330A7000714292009181B281A30A00034
:10004000F130A1000430A2009D2009181B283520A2
:100050001B28FF30A000F530A1000430A200FF30C3
:1000600088009D2088019D2008003A2044205520CA
:10007000672008003C30A000D130A1000430A2006D
:1000800007109D20071408005A30A000D030A100AE
:100090000430A20088017920A703031D4B28831296
:1000A0000313A6010330A70008003C30A000D130A4
:1000B000A1000430A200880179208420A703031D39
:1000C0005C2883120313A6010330A70008003C300C
:1000D000A000D130A1000430A20088018C2095201E
:1000E000A703031D6E2883120313A6010330A70084
:1000F0000800031408180310A60D03102608880032
:100100009D20881F7A2808000310A60C2608880066
:100110009D20081C85280800A6010314A60D2608AA
:1001200088009D20881F8D2808000310A60C260833
:1001300088009D200818952808002008A3002108A1
:10014000A4002208A500A50BA328A40BA128A30B9B
:040150009F280800DC
:02400E00F12F90
:00000001FF
