:020000040000FA
:020000000528D1
:040002000034003492
:06000A00831603178812A3
:100010000313091483120313831603138801880141
:100020008312831603130710831283120313A6018E
:100030000330A7000714292009181B281A30A00034
:10004000F130A1000430A2009C2009181B283520A3
:100050001B28FF30A000F530A1000430A200FF30C3
:1000600088009C2088019C2008003A2044205520CC
:10007000672008003C30A000D130A1000430A2006D
:1000800007109C20071408005A30A000D030A100AF
:100090000430A20088017920A703031D4B28831296
:1000A0000313A6010330A70008003C30A000D130A4
:1000B000A1000430A200880179208320A703031D3A
:1000C0005C2883120313A6010330A70008001A302E
:1000D000A000F130A1000430A20088018B20942000
:1000E000A703031D6E2883120313A6010330A70084
:1000F0000800031408180310A60D260888009C2089
:10010000881F7A2808000310A60C260888009C2067
:10011000081C84280800A6010314A60D26088800E0
:100120009C20881F8C2808000310A60C2608880035
:100130009C200818942808002008A3002108A40087
:100140002208A500A50BA228A40BA028A30B9E287B
:020150000800A5
:02400E00F12F90
:00000001FF
